{
  "_format": "hh-sol-artifact-1",
  "contractName": "CIFDToken",
  "sourceName": "contracts/CIFDToken.sol",
  "abi": [
    {
      "inputs": [
        {
          "internalType": "address",
          "name": "_foundersWallet",
          "type": "address"
        },
        {
          "internalType": "address",
          "name": "_investorsWallet",
          "type": "address"
        },
        {
          "internalType": "address",
          "name": "_ecosystemWallet",
          "type": "address"
        }
      ],
      "stateMutability": "nonpayable",
      "type": "constructor"
    },
    {
      "inputs": [
        {
          "internalType": "address",
          "name": "spender",
          "type": "address"
        },
        {
          "internalType": "uint256",
          "name": "allowance",
          "type": "uint256"
        },
        {
          "internalType": "uint256",
          "name": "needed",
          "type": "uint256"
        }
      ],
      "name": "ERC20InsufficientAllowance",
      "type": "error"
    },
    {
      "inputs": [
        {
          "internalType": "address",
          "name": "sender",
          "type": "address"
        },
        {
          "internalType": "uint256",
          "name": "balance",
          "type": "uint256"
        },
        {
          "internalType": "uint256",
          "name": "needed",
          "type": "uint256"
        }
      ],
      "name": "ERC20InsufficientBalance",
      "type": "error"
    },
    {
      "inputs": [
        {
          "internalType": "address",
          "name": "approver",
          "type": "address"
        }
      ],
      "name": "ERC20InvalidApprover",
      "type": "error"
    },
    {
      "inputs": [
        {
          "internalType": "address",
          "name": "receiver",
          "type": "address"
        }
      ],
      "name": "ERC20InvalidReceiver",
      "type": "error"
    },
    {
      "inputs": [
        {
          "internalType": "address",
          "name": "sender",
          "type": "address"
        }
      ],
      "name": "ERC20InvalidSender",
      "type": "error"
    },
    {
      "inputs": [
        {
          "internalType": "address",
          "name": "spender",
          "type": "address"
        }
      ],
      "name": "ERC20InvalidSpender",
      "type": "error"
    },
    {
      "inputs": [
        {
          "internalType": "address",
          "name": "owner",
          "type": "address"
        }
      ],
      "name": "OwnableInvalidOwner",
      "type": "error"
    },
    {
      "inputs": [
        {
          "internalType": "address",
          "name": "account",
          "type": "address"
        }
      ],
      "name": "OwnableUnauthorizedAccount",
      "type": "error"
    },
    {
      "anonymous": false,
      "inputs": [
        {
          "indexed": true,
          "internalType": "address",
          "name": "owner",
          "type": "address"
        },
        {
          "indexed": true,
          "internalType": "address",
          "name": "spender",
          "type": "address"
        },
        {
          "indexed": false,
          "internalType": "uint256",
          "name": "value",
          "type": "uint256"
        }
      ],
      "name": "Approval",
      "type": "event"
    },
    {
      "anonymous": false,
      "inputs": [
        {
          "indexed": true,
          "internalType": "address",
          "name": "previousOwner",
          "type": "address"
        },
        {
          "indexed": true,
          "internalType": "address",
          "name": "newOwner",
          "type": "address"
        }
      ],
      "name": "OwnershipTransferred",
      "type": "event"
    },
    {
      "anonymous": false,
      "inputs": [
        {
          "indexed": false,
          "internalType": "address",
          "name": "beneficiary",
          "type": "address"
        },
        {
          "indexed": false,
          "internalType": "uint256",
          "name": "amount",
          "type": "uint256"
        }
      ],
      "name": "TokensUnlocked",
      "type": "event"
    },
    {
      "anonymous": false,
      "inputs": [
        {
          "indexed": true,
          "internalType": "address",
          "name": "from",
          "type": "address"
        },
        {
          "indexed": true,
          "internalType": "address",
          "name": "to",
          "type": "address"
        },
        {
          "indexed": false,
          "internalType": "uint256",
          "name": "value",
          "type": "uint256"
        }
      ],
      "name": "Transfer",
      "type": "event"
    },
    {
      "inputs": [
        {
          "internalType": "address",
          "name": "owner",
          "type": "address"
        },
        {
          "internalType": "address",
          "name": "spender",
          "type": "address"
        }
      ],
      "name": "allowance",
      "outputs": [
        {
          "internalType": "uint256",
          "name": "",
          "type": "uint256"
        }
      ],
      "stateMutability": "view",
      "type": "function"
    },
    {
      "inputs": [
        {
          "internalType": "address",
          "name": "spender",
          "type": "address"
        },
        {
          "internalType": "uint256",
          "name": "value",
          "type": "uint256"
        }
      ],
      "name": "approve",
      "outputs": [
        {
          "internalType": "bool",
          "name": "",
          "type": "bool"
        }
      ],
      "stateMutability": "nonpayable",
      "type": "function"
    },
    {
      "inputs": [
        {
          "internalType": "address",
          "name": "account",
          "type": "address"
        }
      ],
      "name": "balanceOf",
      "outputs": [
        {
          "internalType": "uint256",
          "name": "",
          "type": "uint256"
        }
      ],
      "stateMutability": "view",
      "type": "function"
    },
    {
      "inputs": [],
      "name": "decimals",
      "outputs": [
        {
          "internalType": "uint8",
          "name": "",
          "type": "uint8"
        }
      ],
      "stateMutability": "view",
      "type": "function"
    },
    {
      "inputs": [],
      "name": "ecosystemWallet",
      "outputs": [
        {
          "internalType": "address",
          "name": "",
          "type": "address"
        }
      ],
      "stateMutability": "view",
      "type": "function"
    },
    {
      "inputs": [],
      "name": "foundersTokens",
      "outputs": [
        {
          "internalType": "uint256",
          "name": "",
          "type": "uint256"
        }
      ],
      "stateMutability": "view",
      "type": "function"
    },
    {
      "inputs": [],
      "name": "foundersWallet",
      "outputs": [
        {
          "internalType": "address",
          "name": "",
          "type": "address"
        }
      ],
      "stateMutability": "view",
      "type": "function"
    },
    {
      "inputs": [],
      "name": "initFounder",
      "outputs": [
        {
          "internalType": "uint256",
          "name": "",
          "type": "uint256"
        }
      ],
      "stateMutability": "view",
      "type": "function"
    },
    {
      "inputs": [],
      "name": "investorsWallet",
      "outputs": [
        {
          "internalType": "address",
          "name": "",
          "type": "address"
        }
      ],
      "stateMutability": "view",
      "type": "function"
    },
    {
      "inputs": [],
      "name": "maxSupply",
      "outputs": [
        {
          "internalType": "uint256",
          "name": "",
          "type": "uint256"
        }
      ],
      "stateMutability": "view",
      "type": "function"
    },
    {
      "inputs": [],
      "name": "name",
      "outputs": [
        {
          "internalType": "string",
          "name": "",
          "type": "string"
        }
      ],
      "stateMutability": "view",
      "type": "function"
    },
    {
      "inputs": [],
      "name": "owner",
      "outputs": [
        {
          "internalType": "address",
          "name": "",
          "type": "address"
        }
      ],
      "stateMutability": "view",
      "type": "function"
    },
    {
      "inputs": [],
      "name": "renounceOwnership",
      "outputs": [],
      "stateMutability": "nonpayable",
      "type": "function"
    },
    {
      "inputs": [],
      "name": "symbol",
      "outputs": [
        {
          "internalType": "string",
          "name": "",
          "type": "string"
        }
      ],
      "stateMutability": "view",
      "type": "function"
    },
    {
      "inputs": [],
      "name": "totalSupply",
      "outputs": [
        {
          "internalType": "uint256",
          "name": "",
          "type": "uint256"
        }
      ],
      "stateMutability": "view",
      "type": "function"
    },
    {
      "inputs": [
        {
          "internalType": "address",
          "name": "to",
          "type": "address"
        },
        {
          "internalType": "uint256",
          "name": "value",
          "type": "uint256"
        }
      ],
      "name": "transfer",
      "outputs": [
        {
          "internalType": "bool",
          "name": "",
          "type": "bool"
        }
      ],
      "stateMutability": "nonpayable",
      "type": "function"
    },
    {
      "inputs": [
        {
          "internalType": "address",
          "name": "from",
          "type": "address"
        },
        {
          "internalType": "address",
          "name": "to",
          "type": "address"
        },
        {
          "internalType": "uint256",
          "name": "value",
          "type": "uint256"
        }
      ],
      "name": "transferFrom",
      "outputs": [
        {
          "internalType": "bool",
          "name": "",
          "type": "bool"
        }
      ],
      "stateMutability": "nonpayable",
      "type": "function"
    },
    {
      "inputs": [
        {
          "internalType": "address",
          "name": "newOwner",
          "type": "address"
        }
      ],
      "name": "transferOwnership",
      "outputs": [],
      "stateMutability": "nonpayable",
      "type": "function"
    },
    {
      "inputs": [],
      "name": "unlockFoundersTokens",
      "outputs": [],
      "stateMutability": "nonpayable",
      "type": "function"
    },
    {
      "inputs": [],
      "name": "unlockTime1Year",
      "outputs": [
        {
          "internalType": "uint256",
          "name": "",
          "type": "uint256"
        }
      ],
      "stateMutability": "view",
      "type": "function"
    },
    {
      "inputs": [],
      "name": "unlockTime2Years",
      "outputs": [
        {
          "internalType": "uint256",
          "name": "",
          "type": "uint256"
        }
      ],
      "stateMutability": "view",
      "type": "function"
    },
    {
      "inputs": [],
      "name": "unlockTime3Years",
      "outputs": [
        {
          "internalType": "uint256",
          "name": "",
          "type": "uint256"
        }
      ],
      "stateMutability": "view",
      "type": "function"
    },
    {
      "inputs": [],
      "name": "unlockTime4Years",
      "outputs": [
        {
          "internalType": "uint256",
          "name": "",
          "type": "uint256"
        }
      ],
      "stateMutability": "view",
      "type": "function"
    }
  ],
  "bytecode": "0x60806040523480156200001157600080fd5b50604051620028f5380380620028f5833981810160405281019062000037919062000923565b336040518060400160405280600b81526020017f43494644205368617265730000000000000000000000000000000000000000008152506040518060400160405280600481526020017f43494644000000000000000000000000000000000000000000000000000000008152508160039081620000b5919062000bf9565b508060049081620000c7919062000bf9565b505050600073ffffffffffffffffffffffffffffffffffffffff168173ffffffffffffffffffffffffffffffffffffffff16036200013f5760006040517f1e4fbdf700000000000000000000000000000000000000000000000000000000815260040162000136919062000cf1565b60405180910390fd5b62000150816200052d60201b60201c565b50600073ffffffffffffffffffffffffffffffffffffffff168373ffffffffffffffffffffffffffffffffffffffff1603620001c3576040517f08c379a0000000000000000000000000000000000000000000000000000000008152600401620001ba9062000d95565b60405180910390fd5b600073ffffffffffffffffffffffffffffffffffffffff168273ffffffffffffffffffffffffffffffffffffffff160362000235576040517f08c379a00000000000000000000000000000000000000000000000000000000081526004016200022c9062000e2d565b60405180910390fd5b600073ffffffffffffffffffffffffffffffffffffffff168173ffffffffffffffffffffffffffffffffffffffff1603620002a7576040517f08c379a00000000000000000000000000000000000000000000000000000000081526004016200029e9062000ec5565b60405180910390fd5b82600660006101000a81548173ffffffffffffffffffffffffffffffffffffffff021916908373ffffffffffffffffffffffffffffffffffffffff16021790555081600760006101000a81548173ffffffffffffffffffffffffffffffffffffffff021916908373ffffffffffffffffffffffffffffffffffffffff16021790555080600860006101000a81548173ffffffffffffffffffffffffffffffffffffffff021916908373ffffffffffffffffffffffffffffffffffffffff1602179055506301e13380426200037c919062000f16565b600a819055506303c267004262000394919062000f16565b600b819055506305a39a8042620003ac919062000f16565b600c81905550630784ce0042620003c4919062000f16565b600d81905550620003da620005f360201b60201c565b60ff16600a620003eb9190620010a5565b631dcd6500620003fc9190620010f6565b600f8190555060646014600f54620004159190620010f6565b62000421919062001170565b60098190555060006064600a600f546200043c9190620010f6565b62000448919062001170565b9050600060646046600f546200045f9190620010f6565b6200046b919062001170565b905060646009546200047e919062001170565b600e81905550620004ba600660009054906101000a900473ffffffffffffffffffffffffffffffffffffffff16600e54620005fc60201b60201c565b620004ee600760009054906101000a900473ffffffffffffffffffffffffffffffffffffffff1683620005fc60201b60201c565b62000522600860009054906101000a900473ffffffffffffffffffffffffffffffffffffffff1682620005fc60201b60201c565b505050505062001213565b6000600560009054906101000a900473ffffffffffffffffffffffffffffffffffffffff16905081600560006101000a81548173ffffffffffffffffffffffffffffffffffffffff021916908373ffffffffffffffffffffffffffffffffffffffff1602179055508173ffffffffffffffffffffffffffffffffffffffff168173ffffffffffffffffffffffffffffffffffffffff167f8be0079c531659141344cd1fd0a4f28419497f9722a3daafe3b4186f6b6457e060405160405180910390a35050565b60006012905090565b600073ffffffffffffffffffffffffffffffffffffffff168273ffffffffffffffffffffffffffffffffffffffff1603620006715760006040517fec442f0500000000000000000000000000000000000000000000000000000000815260040162000668919062000cf1565b60405180910390fd5b62000685600083836200068960201b60201c565b5050565b600073ffffffffffffffffffffffffffffffffffffffff168373ffffffffffffffffffffffffffffffffffffffff1603620006df578060026000828254620006d2919062000f16565b92505081905550620007b5565b60008060008573ffffffffffffffffffffffffffffffffffffffff1673ffffffffffffffffffffffffffffffffffffffff168152602001908152602001600020549050818110156200076e578381836040517fe450d38c0000000000000000000000000000000000000000000000000000000081526004016200076593929190620011b9565b60405180910390fd5b8181036000808673ffffffffffffffffffffffffffffffffffffffff1673ffffffffffffffffffffffffffffffffffffffff16815260200190815260200160002081905550505b600073ffffffffffffffffffffffffffffffffffffffff168273ffffffffffffffffffffffffffffffffffffffff16036200080057806002600082825403925050819055506200084d565b806000808473ffffffffffffffffffffffffffffffffffffffff1673ffffffffffffffffffffffffffffffffffffffff168152602001908152602001600020600082825401925050819055505b8173ffffffffffffffffffffffffffffffffffffffff168373ffffffffffffffffffffffffffffffffffffffff167fddf252ad1be2c89b69c2b068fc378daa952ba7f163c4a11628f55a4df523b3ef83604051620008ac9190620011f6565b60405180910390a3505050565b600080fd5b600073ffffffffffffffffffffffffffffffffffffffff82169050919050565b6000620008eb82620008be565b9050919050565b620008fd81620008de565b81146200090957600080fd5b50565b6000815190506200091d81620008f2565b92915050565b6000806000606084860312156200093f576200093e620008b9565b5b60006200094f868287016200090c565b935050602062000962868287016200090c565b925050604062000975868287016200090c565b9150509250925092565b600081519050919050565b7f4e487b7100000000000000000000000000000000000000000000000000000000600052604160045260246000fd5b7f4e487b7100000000000000000000000000000000000000000000000000000000600052602260045260246000fd5b6000600282049050600182168062000a0157607f821691505b60208210810362000a175762000a16620009b9565b5b50919050565b60008190508160005260206000209050919050565b60006020601f8301049050919050565b600082821b905092915050565b60006008830262000a817fffffffffffffffffffffffffffffffffffffffffffffffffffffffffffffffff8262000a42565b62000a8d868362000a42565b95508019841693508086168417925050509392505050565b6000819050919050565b6000819050919050565b600062000ada62000ad462000ace8462000aa5565b62000aaf565b62000aa5565b9050919050565b6000819050919050565b62000af68362000ab9565b62000b0e62000b058262000ae1565b84845462000a4f565b825550505050565b600090565b62000b2562000b16565b62000b3281848462000aeb565b505050565b5b8181101562000b5a5762000b4e60008262000b1b565b60018101905062000b38565b5050565b601f82111562000ba95762000b738162000a1d565b62000b7e8462000a32565b8101602085101562000b8e578190505b62000ba662000b9d8562000a32565b83018262000b37565b50505b505050565b600082821c905092915050565b600062000bce6000198460080262000bae565b1980831691505092915050565b600062000be9838362000bbb565b9150826002028217905092915050565b62000c04826200097f565b67ffffffffffffffff81111562000c205762000c1f6200098a565b5b62000c2c8254620009e8565b62000c3982828562000b5e565b600060209050601f83116001811462000c71576000841562000c5c578287015190505b62000c68858262000bdb565b86555062000cd8565b601f19841662000c818662000a1d565b60005b8281101562000cab5784890151825560018201915060208501945060208101905062000c84565b8683101562000ccb578489015162000cc7601f89168262000bbb565b8355505b6001600288020188555050505b505050505050565b62000ceb81620008de565b82525050565b600060208201905062000d08600083018462000ce0565b92915050565b600082825260208201905092915050565b7f466f756e64657227732077616c6c65742063616e6e6f7420626520746865207a60008201527f65726f20616464726573732e0000000000000000000000000000000000000000602082015250565b600062000d7d602c8362000d0e565b915062000d8a8262000d1f565b604082019050919050565b6000602082019050818103600083015262000db08162000d6e565b9050919050565b7f496e766573746f7227732077616c6c65742063616e6e6f74206265207468652060008201527f7a65726f20616464726573732e00000000000000000000000000000000000000602082015250565b600062000e15602d8362000d0e565b915062000e228262000db7565b604082019050919050565b6000602082019050818103600083015262000e488162000e06565b9050919050565b7f45636f73797374656d2077616c6c65742063616e6e6f7420626520746865207a60008201527f65726f20616464726573732e0000000000000000000000000000000000000000602082015250565b600062000ead602c8362000d0e565b915062000eba8262000e4f565b604082019050919050565b6000602082019050818103600083015262000ee08162000e9e565b9050919050565b7f4e487b7100000000000000000000000000000000000000000000000000000000600052601160045260246000fd5b600062000f238262000aa5565b915062000f308362000aa5565b925082820190508082111562000f4b5762000f4a62000ee7565b5b92915050565b60008160011c9050919050565b6000808291508390505b600185111562000fb05780860481111562000f885762000f8762000ee7565b5b600185161562000f985780820291505b808102905062000fa88562000f51565b945062000f68565b94509492505050565b60008262000fcb57600190506200109e565b8162000fdb57600090506200109e565b816001811462000ff4576002811462000fff5762001035565b60019150506200109e565b60ff84111562001014576200101362000ee7565b5b8360020a9150848211156200102e576200102d62000ee7565b5b506200109e565b5060208310610133831016604e8410600b84101617156200106f5782820a90508381111562001069576200106862000ee7565b5b6200109e565b6200107e848484600162000f5e565b9250905081840481111562001098576200109762000ee7565b5b81810290505b9392505050565b6000620010b28262000aa5565b9150620010bf8362000aa5565b9250620010ee7fffffffffffffffffffffffffffffffffffffffffffffffffffffffffffffffff848462000fb9565b905092915050565b6000620011038262000aa5565b9150620011108362000aa5565b9250828202620011208162000aa5565b915082820484148315176200113a576200113962000ee7565b5b5092915050565b7f4e487b7100000000000000000000000000000000000000000000000000000000600052601260045260246000fd5b60006200117d8262000aa5565b91506200118a8362000aa5565b9250826200119d576200119c62001141565b5b828204905092915050565b620011b38162000aa5565b82525050565b6000606082019050620011d0600083018662000ce0565b620011df6020830185620011a8565b620011ee6040830184620011a8565b949350505050565b60006020820190506200120d6000830184620011a8565b92915050565b6116d280620012236000396000f3fe608060405234801561001057600080fd5b506004361061014d5760003560e01c806370a08231116100c357806395d89b411161007c57806395d89b4114610372578063a9059cbb14610390578063d00cb3a3146103c0578063d5abeb01146103ca578063dd62ed3e146103e8578063f2fde38b146104185761014d565b806370a08231146102c0578063715018a6146102f05780638066dd6a146102fa578063817e0da9146103185780638c9b7feb146103365780638da5cb5b146103545761014d565b80631bfaf155116101155780631bfaf155146101fa57806323b872dd14610218578063313ce56714610248578063435263ef14610266578063441a67d6146102845780636b144a08146102a25761014d565b806301089b921461015257806306fdde0314610170578063095ea7b31461018e5780630e449cf9146101be57806318160ddd146101dc575b600080fd5b61015a610434565b604051610167919061116e565b60405180910390f35b61017861045a565b6040516101859190611219565b60405180910390f35b6101a860048036038101906101a391906112a2565b6104ec565b6040516101b591906112fd565b60405180910390f35b6101c661050f565b6040516101d39190611327565b60405180910390f35b6101e4610515565b6040516101f19190611327565b60405180910390f35b61020261051f565b60405161020f919061116e565b60405180910390f35b610232600480360381019061022d9190611342565b610545565b60405161023f91906112fd565b60405180910390f35b610250610574565b60405161025d91906113b1565b60405180910390f35b61026e61057d565b60405161027b919061116e565b60405180910390f35b61028c6105a3565b6040516102999190611327565b60405180910390f35b6102aa6105a9565b6040516102b79190611327565b60405180910390f35b6102da60048036038101906102d591906113cc565b6105af565b6040516102e79190611327565b60405180910390f35b6102f86105f7565b005b61030261060b565b60405161030f9190611327565b60405180910390f35b610320610611565b60405161032d9190611327565b60405180910390f35b61033e610617565b60405161034b9190611327565b60405180910390f35b61035c61061d565b604051610369919061116e565b60405180910390f35b61037a610647565b6040516103879190611219565b60405180910390f35b6103aa60048036038101906103a591906112a2565b6106d9565b6040516103b791906112fd565b60405180910390f35b6103c86106fc565b005b6103d26108ad565b6040516103df9190611327565b60405180910390f35b61040260048036038101906103fd91906113f9565b6108b3565b60405161040f9190611327565b60405180910390f35b610432600480360381019061042d91906113cc565b61093a565b005b600760009054906101000a900473ffffffffffffffffffffffffffffffffffffffff1681565b60606003805461046990611468565b80601f016020809104026020016040519081016040528092919081815260200182805461049590611468565b80156104e25780601f106104b7576101008083540402835291602001916104e2565b820191906000526020600020905b8154815290600101906020018083116104c557829003601f168201915b5050505050905090565b6000806104f76109c0565b90506105048185856109c8565b600191505092915050565b60095481565b6000600254905090565b600660009054906101000a900473ffffffffffffffffffffffffffffffffffffffff1681565b6000806105506109c0565b905061055d8582856109da565b610568858585610a6e565b60019150509392505050565b60006012905090565b600860009054906101000a900473ffffffffffffffffffffffffffffffffffffffff1681565b600e5481565b600d5481565b60008060008373ffffffffffffffffffffffffffffffffffffffff1673ffffffffffffffffffffffffffffffffffffffff168152602001908152602001600020549050919050565b6105ff610b62565b6106096000610be9565b565b600c5481565b600b5481565b600a5481565b6000600560009054906101000a900473ffffffffffffffffffffffffffffffffffffffff16905090565b60606004805461065690611468565b80601f016020809104026020016040519081016040528092919081815260200182805461068290611468565b80156106cf5780601f106106a4576101008083540402835291602001916106cf565b820191906000526020600020905b8154815290600101906020018083116106b257829003601f168201915b5050505050905090565b6000806106e46109c0565b90506106f1818585610a6e565b600191505092915050565b610704610b62565b600a54421015610749576040517f08c379a00000000000000000000000000000000000000000000000000000000081526004016107409061150b565b60405180910390fd5b610751610515565b600f5411610794576040517f08c379a000000000000000000000000000000000000000000000000000000000815260040161078b90611577565b60405180910390fd5b60004290506000600d5482106107ba576028600e546107b391906115c6565b9050610821565b600c5482106107d957601e600e546107d291906115c6565b9050610820565b600b5482106107f8576014600e546107f191906115c6565b905061081f565b600a548210610817576009600e5461081091906115c6565b905061081e565b50506108ab565b5b5b5b61084d600660009054906101000a900473ffffffffffffffffffffffffffffffffffffffff1682610caf565b7fe7b379c6c1fa169e9079c25e9143b127637eef8ec8c9d5c06ddb4ab3e1195888600660009054906101000a900473ffffffffffffffffffffffffffffffffffffffff16826040516108a0929190611608565b60405180910390a150505b565b600f5481565b6000600160008473ffffffffffffffffffffffffffffffffffffffff1673ffffffffffffffffffffffffffffffffffffffff16815260200190815260200160002060008373ffffffffffffffffffffffffffffffffffffffff1673ffffffffffffffffffffffffffffffffffffffff16815260200190815260200160002054905092915050565b610942610b62565b600073ffffffffffffffffffffffffffffffffffffffff168173ffffffffffffffffffffffffffffffffffffffff16036109b45760006040517f1e4fbdf70000000000000000000000000000000000000000000000000000000081526004016109ab919061116e565b60405180910390fd5b6109bd81610be9565b50565b600033905090565b6109d58383836001610d31565b505050565b60006109e684846108b3565b90507fffffffffffffffffffffffffffffffffffffffffffffffffffffffffffffffff8114610a685781811015610a58578281836040517ffb8f41b2000000000000000000000000000000000000000000000000000000008152600401610a4f93929190611631565b60405180910390fd5b610a6784848484036000610d31565b5b50505050565b600073ffffffffffffffffffffffffffffffffffffffff168373ffffffffffffffffffffffffffffffffffffffff1603610ae05760006040517f96c6fd1e000000000000000000000000000000000000000000000000000000008152600401610ad7919061116e565b60405180910390fd5b600073ffffffffffffffffffffffffffffffffffffffff168273ffffffffffffffffffffffffffffffffffffffff1603610b525760006040517fec442f05000000000000000000000000000000000000000000000000000000008152600401610b49919061116e565b60405180910390fd5b610b5d838383610f08565b505050565b610b6a6109c0565b73ffffffffffffffffffffffffffffffffffffffff16610b8861061d565b73ffffffffffffffffffffffffffffffffffffffff1614610be757610bab6109c0565b6040517f118cdaa7000000000000000000000000000000000000000000000000000000008152600401610bde919061116e565b60405180910390fd5b565b6000600560009054906101000a900473ffffffffffffffffffffffffffffffffffffffff16905081600560006101000a81548173ffffffffffffffffffffffffffffffffffffffff021916908373ffffffffffffffffffffffffffffffffffffffff1602179055508173ffffffffffffffffffffffffffffffffffffffff168173ffffffffffffffffffffffffffffffffffffffff167f8be0079c531659141344cd1fd0a4f28419497f9722a3daafe3b4186f6b6457e060405160405180910390a35050565b600073ffffffffffffffffffffffffffffffffffffffff168273ffffffffffffffffffffffffffffffffffffffff1603610d215760006040517fec442f05000000000000000000000000000000000000000000000000000000008152600401610d18919061116e565b60405180910390fd5b610d2d60008383610f08565b5050565b600073ffffffffffffffffffffffffffffffffffffffff168473ffffffffffffffffffffffffffffffffffffffff1603610da35760006040517fe602df05000000000000000000000000000000000000000000000000000000008152600401610d9a919061116e565b60405180910390fd5b600073ffffffffffffffffffffffffffffffffffffffff168373ffffffffffffffffffffffffffffffffffffffff1603610e155760006040517f94280d62000000000000000000000000000000000000000000000000000000008152600401610e0c919061116e565b60405180910390fd5b81600160008673ffffffffffffffffffffffffffffffffffffffff1673ffffffffffffffffffffffffffffffffffffffff16815260200190815260200160002060008573ffffffffffffffffffffffffffffffffffffffff1673ffffffffffffffffffffffffffffffffffffffff168152602001908152602001600020819055508015610f02578273ffffffffffffffffffffffffffffffffffffffff168473ffffffffffffffffffffffffffffffffffffffff167f8c5be1e5ebec7d5bd14f71427d1e84f3dd0314c0f7b2291e5b200ac8c7c3b92584604051610ef99190611327565b60405180910390a35b50505050565b600073ffffffffffffffffffffffffffffffffffffffff168373ffffffffffffffffffffffffffffffffffffffff1603610f5a578060026000828254610f4e9190611668565b9250508190555061102d565b60008060008573ffffffffffffffffffffffffffffffffffffffff1673ffffffffffffffffffffffffffffffffffffffff16815260200190815260200160002054905081811015610fe6578381836040517fe450d38c000000000000000000000000000000000000000000000000000000008152600401610fdd93929190611631565b60405180910390fd5b8181036000808673ffffffffffffffffffffffffffffffffffffffff1673ffffffffffffffffffffffffffffffffffffffff16815260200190815260200160002081905550505b600073ffffffffffffffffffffffffffffffffffffffff168273ffffffffffffffffffffffffffffffffffffffff160361107657806002600082825403925050819055506110c3565b806000808473ffffffffffffffffffffffffffffffffffffffff1673ffffffffffffffffffffffffffffffffffffffff168152602001908152602001600020600082825401925050819055505b8173ffffffffffffffffffffffffffffffffffffffff168373ffffffffffffffffffffffffffffffffffffffff167fddf252ad1be2c89b69c2b068fc378daa952ba7f163c4a11628f55a4df523b3ef836040516111209190611327565b60405180910390a3505050565b600073ffffffffffffffffffffffffffffffffffffffff82169050919050565b60006111588261112d565b9050919050565b6111688161114d565b82525050565b6000602082019050611183600083018461115f565b92915050565b600081519050919050565b600082825260208201905092915050565b60005b838110156111c35780820151818401526020810190506111a8565b60008484015250505050565b6000601f19601f8301169050919050565b60006111eb82611189565b6111f58185611194565b93506112058185602086016111a5565b61120e816111cf565b840191505092915050565b6000602082019050818103600083015261123381846111e0565b905092915050565b600080fd5b6112498161114d565b811461125457600080fd5b50565b60008135905061126681611240565b92915050565b6000819050919050565b61127f8161126c565b811461128a57600080fd5b50565b60008135905061129c81611276565b92915050565b600080604083850312156112b9576112b861123b565b5b60006112c785828601611257565b92505060206112d88582860161128d565b9150509250929050565b60008115159050919050565b6112f7816112e2565b82525050565b600060208201905061131260008301846112ee565b92915050565b6113218161126c565b82525050565b600060208201905061133c6000830184611318565b92915050565b60008060006060848603121561135b5761135a61123b565b5b600061136986828701611257565b935050602061137a86828701611257565b925050604061138b8682870161128d565b9150509250925092565b600060ff82169050919050565b6113ab81611395565b82525050565b60006020820190506113c660008301846113a2565b92915050565b6000602082840312156113e2576113e161123b565b5b60006113f084828501611257565b91505092915050565b600080604083850312156114105761140f61123b565b5b600061141e85828601611257565b925050602061142f85828601611257565b9150509250929050565b7f4e487b7100000000000000000000000000000000000000000000000000000000600052602260045260246000fd5b6000600282049050600182168061148057607f821691505b60208210810361149357611492611439565b5b50919050565b7f54696d65206c6f636b20706572696f6420686173206e6f74207374617274656460008201527f207965742e000000000000000000000000000000000000000000000000000000602082015250565b60006114f5602583611194565b915061150082611499565b604082019050919050565b60006020820190508181036000830152611524816114e8565b9050919050565b7f546f74616c20737570706c79206973206d61782e000000000000000000000000600082015250565b6000611561601483611194565b915061156c8261152b565b602082019050919050565b6000602082019050818103600083015261159081611554565b9050919050565b7f4e487b7100000000000000000000000000000000000000000000000000000000600052601160045260246000fd5b60006115d18261126c565b91506115dc8361126c565b92508282026115ea8161126c565b9150828204841483151761160157611600611597565b5b5092915050565b600060408201905061161d600083018561115f565b61162a6020830184611318565b9392505050565b6000606082019050611646600083018661115f565b6116536020830185611318565b6116606040830184611318565b949350505050565b60006116738261126c565b915061167e8361126c565b925082820190508082111561169657611695611597565b5b9291505056fea2646970667358221220ff03bce81ed57cca25da7ee5eb8d8e7652a8818efd0a78cd6b45c55bcc059a8564736f6c63430008140033",
  "linkReferences": {},
  "deployedLinkReferences": {}
}